{
  "_format": "hh-sol-artifact-1",
  "contractName": "Bank",
  "sourceName": "contracts/Bank.sol",
  "abi": [
    {
      "anonymous": false,
      "inputs": [
        {
          "indexed": false,
          "internalType": "address",
          "name": "addre",
          "type": "address"
        },
        {
          "indexed": false,
          "internalType": "uint256",
          "name": "amount",
          "type": "uint256"
        }
      ],
      "name": "DepositLog",
      "type": "event"
    },
    {
      "anonymous": false,
      "inputs": [
        {
          "indexed": false,
          "internalType": "address",
          "name": "addre",
          "type": "address"
        },
        {
          "indexed": false,
          "internalType": "uint256",
          "name": "amount",
          "type": "uint256"
        }
      ],
      "name": "WithdrawLog",
      "type": "event"
    },
    {
      "anonymous": false,
      "inputs": [
        {
          "indexed": false,
          "internalType": "address",
          "name": "addre",
          "type": "address"
        },
        {
          "indexed": false,
          "internalType": "string",
          "name": "name",
          "type": "string"
        },
        {
          "indexed": false,
          "internalType": "uint256",
          "name": "amount",
          "type": "uint256"
        }
      ],
      "name": "createLog",
      "type": "event"
    },
    {
      "inputs": [
        {
          "internalType": "uint256",
          "name": "_amount",
          "type": "uint256"
        },
        {
          "internalType": "address",
          "name": "_address",
          "type": "address"
        }
      ],
      "name": "Transfer",
      "outputs": [],
      "stateMutability": "payable",
      "type": "function"
    },
    {
      "inputs": [
        {
          "internalType": "address",
          "name": "",
          "type": "address"
        }
      ],
      "name": "Users",
      "outputs": [
        {
          "internalType": "string",
          "name": "fullname",
          "type": "string"
        },
        {
          "internalType": "uint256",
          "name": "balance",
          "type": "uint256"
        },
        {
          "internalType": "address",
          "name": "accountNumber",
          "type": "address"
        }
      ],
      "stateMutability": "view",
      "type": "function"
    },
    {
      "inputs": [
        {
          "internalType": "string",
          "name": "_fullname",
          "type": "string"
        }
      ],
      "name": "createAcc",
      "outputs": [],
      "stateMutability": "nonpayable",
      "type": "function"
    },
    {
      "inputs": [],
      "name": "deposit",
      "outputs": [],
      "stateMutability": "payable",
      "type": "function"
    },
    {
      "inputs": [
        {
          "internalType": "address",
          "name": "_address",
          "type": "address"
        }
      ],
      "name": "getUsers",
      "outputs": [
        {
          "components": [
            {
              "internalType": "string",
              "name": "fullname",
              "type": "string"
            },
            {
              "internalType": "uint256",
              "name": "balance",
              "type": "uint256"
            },
            {
              "internalType": "address",
              "name": "accountNumber",
              "type": "address"
            }
          ],
          "internalType": "struct Bank.User",
          "name": "",
          "type": "tuple"
        }
      ],
      "stateMutability": "view",
      "type": "function"
    },
    {
      "inputs": [
        {
          "internalType": "uint256",
          "name": "_amount",
          "type": "uint256"
        }
      ],
      "name": "withdraw",
      "outputs": [],
      "stateMutability": "nonpayable",
      "type": "function"
    },
    {
      "stateMutability": "payable",
      "type": "receive"
    }
  ],
  "bytecode": "0x608060405234801561001057600080fd5b506114a8806100206000396000f3fe6080604052600436106100595760003560e01c80632e1a7d4d14610065578063602b386e1461008e57806399b956a0146100cb578063abe1dcf91461010a578063d0e30db014610126578063fdf2f5e11461013057610060565b3661006057005b600080fd5b34801561007157600080fd5b5061008c60048036038101906100879190610b16565b610159565b005b34801561009a57600080fd5b506100b560048036038101906100b09190610ba1565b6102e0565b6040516100c29190610ccc565b60405180910390f35b3480156100d757600080fd5b506100f260048036038101906100ed9190610ba1565b61042a565b60405161010193929190610d56565b60405180910390f35b610124600480360381019061011f9190610d94565b6104fc565b005b61012e610804565b005b34801561013c57600080fd5b5061015760048036038101906101529190610f09565b6108ae565b005b47811061019b576040517f08c379a000000000000000000000000000000000000000000000000000000000815260040161019290610f9e565b60405180910390fd5b6000803373ffffffffffffffffffffffffffffffffffffffff1673ffffffffffffffffffffffffffffffffffffffff16815260200190815260200160002060020160009054906101000a900473ffffffffffffffffffffffffffffffffffffffff1673ffffffffffffffffffffffffffffffffffffffff166108fc829081150290604051600060405180830381858888f19350505050158015610242573d6000803e3d6000fd5b507fe3e9839feffe8b09968afc53bb5d9e159acf58162773c4b2c26f942cab6f33396000803373ffffffffffffffffffffffffffffffffffffffff1673ffffffffffffffffffffffffffffffffffffffff16815260200190815260200160002060020160009054906101000a900473ffffffffffffffffffffffffffffffffffffffff16826040516102d5929190610fbe565b60405180910390a150565b6102e8610a95565b6000808373ffffffffffffffffffffffffffffffffffffffff1673ffffffffffffffffffffffffffffffffffffffff16815260200190815260200160002060405180606001604052908160008201805461034190611016565b80601f016020809104026020016040519081016040528092919081815260200182805461036d90611016565b80156103ba5780601f1061038f576101008083540402835291602001916103ba565b820191906000526020600020905b81548152906001019060200180831161039d57829003601f168201915b50505050508152602001600182015481526020016002820160009054906101000a900473ffffffffffffffffffffffffffffffffffffffff1673ffffffffffffffffffffffffffffffffffffffff1673ffffffffffffffffffffffffffffffffffffffff16815250509050919050565b600060205280600052604060002060009150905080600001805461044d90611016565b80601f016020809104026020016040519081016040528092919081815260200182805461047990611016565b80156104c65780601f1061049b576101008083540402835291602001916104c6565b820191906000526020600020905b8154815290600101906020018083116104a957829003601f168201915b5050505050908060010154908060020160009054906101000a900473ffffffffffffffffffffffffffffffffffffffff16905083565b4782111561053f576040517f08c379a000000000000000000000000000000000000000000000000000000000815260040161053690610f9e565b60405180910390fd5b6000803373ffffffffffffffffffffffffffffffffffffffff1673ffffffffffffffffffffffffffffffffffffffff16815260200190815260200160002060020160009054906101000a900473ffffffffffffffffffffffffffffffffffffffff1673ffffffffffffffffffffffffffffffffffffffff168173ffffffffffffffffffffffffffffffffffffffff160361060e576040517f08c379a000000000000000000000000000000000000000000000000000000000815260040161060590611093565b60405180910390fd5b816000803373ffffffffffffffffffffffffffffffffffffffff1673ffffffffffffffffffffffffffffffffffffffff168152602001908152602001600020600101600082825461065f91906110e2565b92505081905550816000808373ffffffffffffffffffffffffffffffffffffffff1673ffffffffffffffffffffffffffffffffffffffff16815260200190815260200160002060010160008282546106b79190611116565b925050819055506000803373ffffffffffffffffffffffffffffffffffffffff1673ffffffffffffffffffffffffffffffffffffffff16815260200190815260200160002060020160009054906101000a900473ffffffffffffffffffffffffffffffffffffffff1673ffffffffffffffffffffffffffffffffffffffff166108fc839081150290604051600060405180830381858888f19350505050158015610765573d6000803e3d6000fd5b507fe3e9839feffe8b09968afc53bb5d9e159acf58162773c4b2c26f942cab6f33396000803373ffffffffffffffffffffffffffffffffffffffff1673ffffffffffffffffffffffffffffffffffffffff16815260200190815260200160002060020160009054906101000a900473ffffffffffffffffffffffffffffffffffffffff16836040516107f8929190610fbe565b60405180910390a15050565b346000803373ffffffffffffffffffffffffffffffffffffffff1673ffffffffffffffffffffffffffffffffffffffff16815260200190815260200160002060010160008282546108559190611116565b925050819055507f75d93f6678d61a0982e05953dd44688cf42a84c70b8668da6ac79cd6337f6f74333373ffffffffffffffffffffffffffffffffffffffff16316040516108a4929190610fbe565b60405180910390a1565b600073ffffffffffffffffffffffffffffffffffffffff166000803373ffffffffffffffffffffffffffffffffffffffff1673ffffffffffffffffffffffffffffffffffffffff16815260200190815260200160002060020160009054906101000a900473ffffffffffffffffffffffffffffffffffffffff1673ffffffffffffffffffffffffffffffffffffffff161461097e576040517f08c379a000000000000000000000000000000000000000000000000000000000815260040161097590611196565b60405180910390fd5b60405180606001604052808281526020014781526020013373ffffffffffffffffffffffffffffffffffffffff168152506000803373ffffffffffffffffffffffffffffffffffffffff1673ffffffffffffffffffffffffffffffffffffffff1681526020019081526020016000206000820151816000019081610a029190611362565b506020820151816001015560408201518160020160006101000a81548173ffffffffffffffffffffffffffffffffffffffff021916908373ffffffffffffffffffffffffffffffffffffffff1602179055509050507fa3d00e4c3364c59b79555578f2d3f47968ed6554858b2fe008530590b1a51d2c338247604051610a8a93929190611434565b60405180910390a150565b60405180606001604052806060815260200160008152602001600073ffffffffffffffffffffffffffffffffffffffff1681525090565b6000604051905090565b600080fd5b600080fd5b6000819050919050565b610af381610ae0565b8114610afe57600080fd5b50565b600081359050610b1081610aea565b92915050565b600060208284031215610b2c57610b2b610ad6565b5b6000610b3a84828501610b01565b91505092915050565b600073ffffffffffffffffffffffffffffffffffffffff82169050919050565b6000610b6e82610b43565b9050919050565b610b7e81610b63565b8114610b8957600080fd5b50565b600081359050610b9b81610b75565b92915050565b600060208284031215610bb757610bb6610ad6565b5b6000610bc584828501610b8c565b91505092915050565b600081519050919050565b600082825260208201905092915050565b60005b83811015610c08578082015181840152602081019050610bed565b60008484015250505050565b6000601f19601f8301169050919050565b6000610c3082610bce565b610c3a8185610bd9565b9350610c4a818560208601610bea565b610c5381610c14565b840191505092915050565b610c6781610ae0565b82525050565b610c7681610b63565b82525050565b60006060830160008301518482036000860152610c998282610c25565b9150506020830151610cae6020860182610c5e565b506040830151610cc16040860182610c6d565b508091505092915050565b60006020820190508181036000830152610ce68184610c7c565b905092915050565b600082825260208201905092915050565b6000610d0a82610bce565b610d148185610cee565b9350610d24818560208601610bea565b610d2d81610c14565b840191505092915050565b610d4181610ae0565b82525050565b610d5081610b63565b82525050565b60006060820190508181036000830152610d708186610cff565b9050610d7f6020830185610d38565b610d8c6040830184610d47565b949350505050565b60008060408385031215610dab57610daa610ad6565b5b6000610db985828601610b01565b9250506020610dca85828601610b8c565b9150509250929050565b600080fd5b600080fd5b7f4e487b7100000000000000000000000000000000000000000000000000000000600052604160045260246000fd5b610e1682610c14565b810181811067ffffffffffffffff82111715610e3557610e34610dde565b5b80604052505050565b6000610e48610acc565b9050610e548282610e0d565b919050565b600067ffffffffffffffff821115610e7457610e73610dde565b5b610e7d82610c14565b9050602081019050919050565b82818337600083830152505050565b6000610eac610ea784610e59565b610e3e565b905082815260208101848484011115610ec857610ec7610dd9565b5b610ed3848285610e8a565b509392505050565b600082601f830112610ef057610eef610dd4565b5b8135610f00848260208601610e99565b91505092915050565b600060208284031215610f1f57610f1e610ad6565b5b600082013567ffffffffffffffff811115610f3d57610f3c610adb565b5b610f4984828501610edb565b91505092915050565b7f696e73756666696369656e742062616c616e6365000000000000000000000000600082015250565b6000610f88601483610cee565b9150610f9382610f52565b602082019050919050565b60006020820190508181036000830152610fb781610f7b565b9050919050565b6000604082019050610fd36000830185610d47565b610fe06020830184610d38565b9392505050565b7f4e487b7100000000000000000000000000000000000000000000000000000000600052602260045260246000fd5b6000600282049050600182168061102e57607f821691505b60208210810361104157611040610fe7565b5b50919050565b7f706c6561736520696e7075742061206465666672656e74206164647265737300600082015250565b600061107d601f83610cee565b915061108882611047565b602082019050919050565b600060208201905081810360008301526110ac81611070565b9050919050565b7f4e487b7100000000000000000000000000000000000000000000000000000000600052601160045260246000fd5b60006110ed82610ae0565b91506110f883610ae0565b92508282039050818111156111105761110f6110b3565b5b92915050565b600061112182610ae0565b915061112c83610ae0565b9250828201905080821115611144576111436110b3565b5b92915050565b7f4163636f756e7420616c72656164792065786973740000000000000000000000600082015250565b6000611180601583610cee565b915061118b8261114a565b602082019050919050565b600060208201905081810360008301526111af81611173565b9050919050565b60008190508160005260206000209050919050565b60006020601f8301049050919050565b600082821b905092915050565b6000600883026112187fffffffffffffffffffffffffffffffffffffffffffffffffffffffffffffffff826111db565b61122286836111db565b95508019841693508086168417925050509392505050565b6000819050919050565b600061125f61125a61125584610ae0565b61123a565b610ae0565b9050919050565b6000819050919050565b61127983611244565b61128d61128582611266565b8484546111e8565b825550505050565b600090565b6112a2611295565b6112ad818484611270565b505050565b5b818110156112d1576112c660008261129a565b6001810190506112b3565b5050565b601f821115611316576112e7816111b6565b6112f0846111cb565b810160208510156112ff578190505b61131361130b856111cb565b8301826112b2565b50505b505050565b600082821c905092915050565b60006113396000198460080261131b565b1980831691505092915050565b60006113528383611328565b9150826002028217905092915050565b61136b82610bce565b67ffffffffffffffff81111561138457611383610dde565b5b61138e8254611016565b6113998282856112d5565b600060209050601f8311600181146113cc57600084156113ba578287015190505b6113c48582611346565b86555061142c565b601f1984166113da866111b6565b60005b82811015611402578489015182556001820191506020850194506020810190506113dd565b8683101561141f578489015161141b601f891682611328565b8355505b6001600288020188555050505b505050505050565b60006060820190506114496000830186610d47565b818103602083015261145b8185610cff565b905061146a6040830184610d38565b94935050505056fea2646970667358221220922a88fa67191dc4da4a4786086f553936170445e98c14b6eb9d9b011dbb8b5964736f6c63430008180033",
  "linkReferences": {},
  "deployedLinkReferences": {}
}